:020000040800F2
:100000000000012005220008352100083D210008DC
:10001000452100084D21000855210008000000007E
:100020000000000000000000000000005D2100084A
:1000300069210008000000007521000881210008E6
:100040004D2200084D2200084D2200084D220008D4
:100050004D2200084D2200084D2200084D220008C4
:100060004D2200084D2200084D2200084D220008B4
:100070004D2200084D2200084D2200084D220008A4
:100080004D2200084D2200084D2200084D22000894
:100090004D2200084D2200084D2200084D22000884
:1000A0004D2200084D2200084D2200084D22000874
:1000B0004D2200088D2100084D2200084D22000825
:1000C0004D2200084D2200084D2200084D22000854
:1000D0004D2200084D2200084D2200084D22000844
:1000E0004D2200084D2200084D2200084D22000834
:1000F0004D2200084D2200084D2200084D22000824
:100100004D2200084D2200084D2200084D22000813
:100110004D2200084D2200084D2200084D22000803
:100120004D2200084D2200084D2200084D220008F3
:1001300000000000000000000000000000000000BF
:1001400000000000000000000000000000000000AF
:10015000000000000000000000000000000000009F
:10016000000000000000000000000000000000008F
:10017000000000000000000000000000000000007F
:10018000000000000000000000000000000000006F
:10019000000000000000000000000000000000005F
:1001A000000000000000000000000000000000004F
:1001B000000000000000000000000000000000003F
:1001C000000000000000000000000000000000002F
:1001D000000000000000000000000000000000001F
:0401E0005FF8E0F1F3
:1001E40010B5054C237833B9044B13B10448AFF36D
:1001F40000800123237010BD3C000020000000009B
:100204000C24000808B5034B1BB103490348AFF3A2
:10021400008008BD00000000400000200C240008FD
:1002240003460244934200D1704703F8011BF9E7E7
:1002340070B500260C4D0D4C641BA410A64209D1C8
:1002440002F0E2F800260A4D0A4C641BA410A642F0
:1002540005D170BD55F8043B98470136EEE755F8D3
:10026400043B98470136F2E7482400084824000874
:10027400482400084C24000880B400AF00BFBD46E9
:1002840080BC704780B582B000AF78607B68002B7B
:1002940001D1012341E07B6893F83D30DBB2002BB0
:1002A40006D17B68002283F83C20786801F01AFFAD
:1002B4007B68022283F83D207B681A687B680433DC
:1002C4001946104600F06AFA7B68012283F846203A
:1002D4007B68012283F83E207B68012283F83F205B
:1002E4007B68012283F840207B68012283F8412047
:1002F4007B68012283F842207B68012283F8432033
:100304007B68012283F844207B68012283F845201E
:100314007B68012283F83D20002318460837BD4638
:1003240080BD000080B485B000AF78607B6893F82E
:100334003D30DBB2012B01D0012344E07B68022273
:1003440083F83D207B681B68DA687B681B6842F091
:100354000102DA607B681B681D4A934218D07B68EF
:100364001B681C4A934213D07B681B68B3F1804F0F
:100374000ED07B681B68184A934209D07B681B68BF
:10038400164A934204D07B681B68154A934211D1E4
:100394007B681B689B6803F00703FB60FB68062B04
:1003A40010D07B681B681A687B681B6842F00102E6
:1003B4001A6007E07B681B681A687B681B6842F058
:1003C40001021A60002318461437BD4680BC7047EA
:1003D400002C0140003401400004004000080040AB
:1003E400000C004080B584B000AF78607B681B6867
:1003F400DB68FB607B681B681B69BB60BB6803F040
:100404000203002B20D0FB6803F00203002B1BD057
:100414007B681B686FF002021A617B6801221A77FD
:100424007B681B689B6903F00303002B03D0786887
:1004340000F098F905E0786800F08BF9786800F02E
:100444009AF97B6800221A77BB6803F00403002B37
:1004540020D0FB6803F00403002B1BD07B681B68CF
:100464006FF004021A617B6802221A777B681B68AA
:100474009B6903F44073002B03D0786800F072F991
:1004840005E0786800F065F9786800F074F97B6835
:1004940000221A77BB6803F00803002B20D0FB6806
:1004A40003F00803002B1BD07B681B686FF0080265
:1004B4001A617B6804221A777B681B68DB6903F086
:1004C4000303002B03D0786800F04CF905E078684A
:1004D40000F03FF9786800F04EF97B6800221A7743
:1004E400BB6803F01003002B20D0FB6803F010035B
:1004F400002B1BD07B681B686FF010021A617B68AD
:1005040008221A777B681B68DB6903F44073002BAD
:1005140003D0786800F026F905E0786800F019F94E
:10052400786800F028F97B6800221A77BB6803F02A
:100534000103002B0CD0FB6803F00103002B07D050
:100544007B681B686FF001021A61786801F032FC65
:10055400BB6803F08003002B0CD0FB6803F080031E
:10056400002B07D07B681B686FF080021A617868E3
:1005740000F0A5FABB6803F04003002B0CD0FB6825
:1005840003F04003002B07D07B681B686FF0400228
:100594001A61786800F0F8F8BB6803F02003002BB8
:1005A4000CD0FB6803F02003002B07D07B681B688A
:1005B4006FF020021A61786800F078FA00BF1037F3
:1005C400BD4680BD80B584B000AF7860396000233B
:1005D400FB737B6893F83C30012B01D10223B4E018
:1005E4007B68012283F83C207B68022283F83D204B
:1005F4007B681B689B68BB60BB6823F07703BB60A8
:10060400BB6823F47F43BB607B681B68BA689A604D
:100614003B681B68B3F5005F3ED0B3F5005F00F2A2
:100624008780B3F5805F00F08680B3F5805F7FD864
:10063400702B1AD0702B7BD8602B50D0602B77D8BE
:10064400502B3CD0502B73D8402B58D0402B6FD814
:10065400302B64D0302B6BD8202B60D0202B67D864
:10066400002B5CD0102B5AD062E07B6818683B6882
:1006740099683B685A683B68DB6800F08CF97B68D2
:100684001B689B68BB60BB6843F07703BB607B68F7
:100694001B68BA689A604FE07B6818683B68996881
:1006A4003B685A683B68DB6800F075F97B681B6837
:1006B4009A687B681B6842F480429A603CE07B68DD
:1006C40018683B6859683B68DB681A4600F0ECF828
:1006D4007B681B685021184600F043F92CE07B68C6
:1006E40018683B6859683B68DB681A4600F00AF9E9
:1006F4007B681B686021184600F033F91CE07B68B6
:1007040018683B6859683B68DB681A4600F0CCF807
:100714007B681B684021184600F023F90CE07B68D5
:100724001A683B681B681946104600F01AF903E082
:100734000123FB7300E000BF7B68012283F83D20A6
:100744007B68002283F83C20FB7B18461037BD46AB
:1007540080BD80B483B000AF786000BF0C37BD4665
:1007640080BC704780B483B000AF786000BF0C37A2
:10077400BD4680BC704780B483B000AF786000BFD2
:100784000C37BD4680BC704780B483B000AF78603E
:1007940000BF0C37BD4680BC7047000080B485B0F4
:1007A40000AF786039607B681B68FB607B68394AFE
:1007B400934213D07B68384A93420FD07B68B3F1DD
:1007C400804F0BD07B68354A934207D07B68344A0C
:1007D400934203D07B68334A934208D1FB6823F0E9
:1007E4007003FB603B685B68FA681343FB607B68DB
:1007F400284A934213D07B68274A93420FD07B68E0
:10080400B3F1804F0BD07B68244A934207D07B68B6
:10081400234A934203D07B68224A934208D1FB685F
:1008240023F44073FB603B68DB68FA681343FB60A6
:10083400FB6823F080023B685B691343FB607B68C1
:10084400FA681A603B689A687B68DA623B681A68DF
:100854007B689A627B680F4A934203D07B680E4A96
:10086400934203D13B681A697B681A637B6801224F
:100874005A617B681B6903F00103002B05D07B6878
:100884001B6923F001027B681A6100BF1437BD465F
:1008940080BC7047002C014000340140000400403B
:1008A40000080040000C004080B487B000AFF8603E
:1008B400B9607A60FB681B6A7B61FB681B6A23F082
:1008C4000102FB681A62FB689B693B613B6923F088
:1008D400F0033B617B681B013A6913433B617B690D
:1008E40023F00A037B617A69BB6813437B61FB686D
:1008F4003A699A61FB687A691A6200BF1C37BD467F
:1009040080BC704780B487B000AFF860B9607A608B
:10091400FB681B6A7B61FB681B6A23F01002FB689F
:100924001A62FB689B693B613B6923F470433B613A
:100934007B681B033A6913433B617B6923F0A00383
:100944007B61BB681B017A6913437B61FB683A696D
:100954009A61FB687A691A6200BF1C37BD4680BC85
:10096400704780B485B000AF786039607B689B685D
:10097400FB60FB6823F07003FB603A68FB68134379
:1009840043F00703FB607B68FA689A6000BF143782
:10099400BD4680BC704780B487B000AFF860B960D2
:1009A4007A603B60FB689B687B617B6923F47F43CF
:1009B4007B613B681A027B681A43BB6813437A69FC
:1009C40013437B61FB687A699A6000BF1C37BD469C
:1009D40080BC704780B485B000AF786039607B68B4
:1009E40093F83C30012B01D1022350E07B680122B3
:1009F40083F83C207B68022283F83D207B681B68D7
:100A04005B68FB607B681B689B68BB60FB6823F0CA
:100A14007003FB603B681B68FA681343FB607B68E8
:100A24001B68FA685A607B681B681B4A934218D09B
:100A34007B681B68194A934213D07B681B68B3F127
:100A4400804F0ED07B681B68154A934209D07B689F
:100A54001B68144A934204D07B681B68124A934271
:100A64000CD1BB6823F08003BB603B685B68BA6849
:100A74001343BB607B681B68BA689A607B68012279
:100A840083F83D207B68002283F83C20002318462D
:100A94001437BD4680BC7047002C0140003401402F
:100AA4000004004000080040000C004080B483B003
:100AB40000AF786000BF0C37BD4680BC704780B47F
:100AC40083B000AF786000BF0C37BD4680BC704770
:100AD40080B500AF084B1B68074A43F0100313604E
:100AE400032000F001FF0F2000F008F801F056FB8E
:100AF4000023184680BD00BF0020024080B582B0AC
:100B040000AF7860124B1A68124B1B7819464FF4E9
:100B14007A73B3FBF1F3B2FBF3F3184600F019FF59
:100B24000346002B01D001230EE07B680F2B0AD86B
:100B3400002279684FF0FF3000F0E1FE064A7B683E
:100B44001360002300E0012318460837BD4680BD2A
:100B540000000020080000200400002080B400AF42
:100B6400054B1B781A46054B1B681344034A136054
:100B740000BFBD4680BC704708000020580000201C
:100B840080B400AF024B1B681846BD4680BC70475A
:100B94005800002080B584B000AF7860FFF7F0FF04
:100BA400B8607B68FB60FB68B3F1FF3F05D00A4B7C
:100BB4001B781A46FB681344FB6000BFFFF7E0FF95
:100BC4000246BB68D31AFA689A42F7D800BF00BF3E
:100BD4001037BD4680BD00BF0800002080B586B038
:100BE40000AF78607B68002B01D1012372E27B683F
:100BF4001B6803F00103002B00F08780924B5B68B5
:100C040003F00C03042B0CD08F4B5B6803F00C0334
:100C1400082B12D18C4B5B6803F48033B3F5803F0F
:100C24000BD1894B1B6803F40033002B6CD07B6819
:100C34005B68002B68D101234CE27B685B68B3F5E9
:100C4400803F06D1804B1B687F4A43F48033136096
:100C54002EE07B685B68002B0CD17B4B1B687A4AC7
:100C640023F480331360784B1B68774A23F4802382
:100C740013601DE07B685B68B3F5A02F0CD1724B49
:100C84001B68714A43F4802313606F4B1B686E4AE0
:100C940043F4803313600BE06B4B1B686A4A23F404
:100CA40080331360684B1B68674A23F48023136006
:100CB4007B685B68002B13D0FFF762FF386108E0A4
:100CC400FFF75EFF02463B69D31A642B01D9032365
:100CD40000E25D4B1B6803F40033002BF0D014E0FA
:100CE400FFF74EFF386108E0FFF74AFF02463B6911
:100CF400D31A642B01D90323ECE1534B1B6803F48F
:100D04000033002BF0D100E000BF7B681B6803F0C8
:100D14000203002B63D04C4B5B6803F00C03002BE5
:100D24000BD0494B5B6803F00C03082B1CD1464BDA
:100D34005B6803F48033002B16D1434B1B6803F02C
:100D44000203002B05D07B681B69012B01D0012312
:100D5400C0E13D4B1B6823F0F8027B685B69DB0054
:100D6400394913430B603AE07B681B69002B20D0A0
:100D7400364B01221A60FFF703FF386108E0FFF7E2
:100D8400FFFE02463B69D31A022B01D90323A1E1DA
:100D94002D4B1B6803F00203002BF0D02A4B1B6879
:100DA40023F0F8027B685B69DB00274913430B607F
:100DB40015E0264B00221A60FFF7E2FE386108E0D6
:100DC400FFF7DEFE02463B69D31A022B01D9032347
:100DD40080E11D4B1B6803F00203002BF0D17B68FC
:100DE4001B6803F00803002B3AD07B689B69002B37
:100DF40019D0174B01221A60FFF7C2FE386108E0D0
:100E0400FFF7BEFE02463B69D31A022B01D9032326
:100E140060E10D4B5B6A03F00203002BF0D001206C
:100E240000F09CFA1CE00A4B00221A60FFF7A8FEAF
:100E340038610FE0FFF7A4FE02463B69D31A022B88
:100E440008D9032346E100BF0010024000004242DB
:100E540080044242924B5B6A03F00203002BE9D107
:100E64007B681B6803F00403002B00F0A6800023BA
:100E7400FB758B4BDB6903F08053002B0DD1884B42
:100E8400DB69874A43F08053D361854BDB6903F008
:100E94008053BB60BB680123FB75824B1B6803F462
:100EA4008073002B18D17F4B1B687E4A43F48073F8
:100EB4001360FFF765FE386108E0FFF761FE024644
:100EC4003B69D31A642B01D9032303E1754B1B68D7
:100ED40003F48073002BF0D07B68DB68012B06D110
:100EE4006F4B1B6A6E4A43F0010313622DE07B686B
:100EF400DB68002B0CD16A4B1B6A694A23F001039F
:100F04001362674B1B6A664A23F0040313621CE0F6
:100F14007B68DB68052B0CD1614B1B6A604A43F08C
:100F2400040313625E4B1B6A5D4A43F001031362C0
:100F34000BE05B4B1B6A5A4A23F001031362584BC4
:100F44001B6A574A23F0040313627B68DB68002B97
:100F540015D0FFF715FE38610AE0FFF711FE0246CF
:100F64003B69D31A41F28832934201D90323B1E099
:100F74004B4B1B6A03F00203002BEED014E0FFF787
:100F8400FFFD38610AE0FFF7FBFD02463B69D31A17
:100F940041F28832934201D903239BE0404B1B6A00
:100FA40003F00203002BEED1FB7D012B05D13C4B5A
:100FB400DB693B4A23F08053D3617B68DB69002BF8
:100FC40000F08780364B5B6803F00C03082B61D07C
:100FD4007B68DB69022B46D1334B00221A60FFF792
:100FE400CFFD386108E0FFF7CBFD02463B69D31A19
:100FF400022B01D903236DE0294B1B6803F0007316
:10100400002BF0D17B681B6AB3F5803F08D1244BD9
:101014005B6823F400327B689B68214913434B606F
:101024001F4B5B6823F474127B68196A7B685B6AE4
:101034000B431B4913434B601B4B01221A60FFF700
:101044009FFD386108E0FFF79BFD02463B69D31A18
:10105400022B01D903233DE0114B1B6803F00073FD
:10106400002BF0D035E0104B00221A60FFF788FD0A
:10107400386108E0FFF784FD02463B69D31A022B6E
:1010840001D9032326E0064B1B6803F00073002BF1
:10109400F0D11EE07B68DB69012B07D1012319E045
:1010A4000010024000700040600042420B4B5B683D
:1010B400FB60FB6803F480327B681B6A9A4206D1AA
:1010C400FB6803F470127B685B6A9A4201D00123C7
:1010D40000E0002318461837BD4680BD00100240CA
:1010E40080B584B000AF786039607B68002B01D193
:1010F4000123D0E06A4B1B6803F007033A689A4265
:1011040010D9674B1B6823F0070265493B681343FA
:101114000B60634B1B6803F007033A689A4201D0E3
:101124000123B8E07B681B6803F00203002B20D086
:101134007B681B6803F00403002B05D0594B5B68E4
:10114400584A43F4E06353607B681B6803F0080368
:10115400002B05D0534B5B68524A43F460535360F1
:10116400504B5B6823F0F0027B689B684D49134346
:101174004B607B681B6803F00103002B40D07B6845
:101184005B68012B07D1474B1B6803F40033002B2A
:1011940015D101237FE07B685B68022B07D1414BAB
:1011A4001B6803F00073002B09D1012373E03D4B4E
:1011B4001B6803F00203002B01D101236BE0394BC0
:1011C4005B6823F003027B685B68364913434B601A
:1011D400FFF7D6FCF8600AE0FFF7D2FC0246FB6892
:1011E400D31A41F28832934201D9032353E02D4BA1
:1011F4005B6803F00C027B685B689B009A42EBD14E
:10120400274B1B6803F007033A689A4210D2244B19
:101214001B6823F0070222493B6813430B60204BF1
:101224001B6803F007033A689A4201D0012332E0B5
:101234007B681B6803F00403002B08D0194B5B6820
:1012440023F4E0627B68DB68164913434B607B68D8
:101254001B6803F00803002B09D0124B5B6823F4CE
:1012640060527B681B69DB000E4913434B6000F03E
:1012740021F802460B4B5B681B0903F00F030A4974
:10128400CB5C22FA03F3094A1360094B1B68184626
:10129400FFF734FC002318461037BD4680BD00BF5D
:1012A4000020024000100240242400080000002016
:1012B4000400002080B487B000AF0023FB6000234B
:1012C400BB6000237B6100237B6000233B611E4BDA
:1012D4005B68FB60FB6803F00C03042B02D0082B53
:1012E40003D027E0194B3B6127E0FB689B0C03F01C
:1012F4000F03174AD35C7B60FB6803F48033002B35
:1013040010D0114B5B685B0C03F00103114AD35CF2
:10131400BB607B680D4A03FB02F2BB68B2FBF3F3CC
:101324007B6104E07B680C4A02FB03F37B617B690D
:101334003B6102E0054B3B6100BF3B6918461C372B
:10134400BD4680BC704700BF0010024000127A0006
:10135400342400084424000800093D0080B485B00A
:1013640000AF78600A4B1B680A4AA2FB03235B0A9E
:101374007A6802FB03F3FB6000BFFB685A1EFA6045
:10138400002BF9D100BF00BF1437BD4680BC7047A5
:1013940000000020D34D621080B48BB000AF7860A1
:1013A400396000237B6200233B6279E101227B6A7E
:1013B40002FA03F3FB613B681B68FA691340BB61E3
:1013C400BA69FB699A4240F068813B685B68964A57
:1013D40093425ED0944A934275D8944A934258D02B
:1013E400924A93426FD8924A934252D0904A93427F
:1013F40069D8904A93424CD08E4A934263D88E4A1D
:10140400934246D08C4A93425DD8122B2AD8122B91
:1014140059D801A252F823F0971400087114000857
:1014240083140008C5140008CB140008CB1400086A
:10143400CB140008CB140008CB140008CB1400080C
:10144400CB140008CB140008CB140008CB140008FC
:10145400CB140008CB140008CB140008791400083E
:101464008D140008754A934213D02CE03B68DB6866
:101474003B6229E03B68DB6804333B6224E03B6861
:10148400DB6808333B621FE03B68DB680C333B627C
:101494001AE03B689B68002B02D104233B6213E0F3
:1014A4003B689B68012B05D108233B627B68FA6982
:1014B4001A6109E008233B627B68FA695A6103E018
:1014C40000233B6200E000BFBB69FF2B01D87B68AF
:1014D40001E07B6804337B61BB69FF2B02D87B6A24
:1014E4009B0002E07B6A083B9B003B617B691A68B6
:1014F4000F213B6901FA03F3DB431A40396A3B6964
:1015040001FA03F31A437B691A603B685B6803F0D2
:101514008053002B00F0C180494B9B69484A43F03B
:1015240001039361464B9B6903F00103BB60BB68F5
:10153400444A7B6A9B08023352F82330FB607B6A7F
:1015440003F003039B000F2202FA03F3DB43FA6860
:101554001340FB607B683C4A93421FD07B683B4A44
:10156400934219D07B683A4A934213D07B68394A34
:1015740093420DD07B68384A934207D07B68374A40
:10158400934201D105230AE0062308E0042306E080
:10159400032304E0022302E0012300E000237A6A2B
:1015A40002F0030292009340FA681343FB6025495A
:1015B4007B6A9B080233FA6841F823203B685B6826
:1015C40003F48013002B06D0254B9A682449BB6989
:1015D40013438B6006E0224B9A68BB69DB432049C6
:1015E40013408B603B685B6803F40013002B06D048
:1015F4001B4BDA681A49BB691343CB6006E0184BEE
:10160400DA68BB69DB4316491340CB603B685B680F
:1016140003F40033002B25D0114B5A681049BB69E1
:1016240013434B6025E000BF00003210000031106E
:101634000000221000002110000012100000111000
:10164400001002400000014000080140000C01406D
:10165400001001400014014000180140001C01402A
:1016640000040140154B5A68BB69DB43134913401E
:101674004B603B685B6803F48033002B06D00F4B50
:101684001A680E49BB6913430B6006E00B4B1A68DA
:10169400BB69DB43094913400B607B6A01337B62FE
:1016A4003B681A687B6A22FA03F3002B7FF47EAE50
:1016B40000BF00BF2C37BD4680BC7047000401400A
:1016C40080B485B000AF78600B467B807B689A68F5
:1016D4007B881340002B02D00123FB7301E000231D
:1016E400FB73FB7B18461437BD4680BC704780B43F
:1016F40083B000AF78600B467B8013467B707B78A9
:10170400002B03D07A887B681A6103E07B881A0473
:101714007B681A6100BF0C37BD4680BC704780B43B
:1017240085B000AF78600B467B807B68DB68FB602C
:101734007A88FB6813401A04FB68D9437B880B4002
:101744001A437B681A6100BF1437BD4680BC7047DA
:1017540080B485B000AF78607B6803F00703FB605A
:101764000C4BDB68BB60BA684FF6FF031340BB60E9
:10177400FB681A02BB68134343F0BF6343F40033AE
:10178400BB60044ABB68D36000BF1437BD4680BC4D
:10179400704700BF00ED00E080B400AF044BDB688D
:1017A4001B0A03F007031846BD4680BC704700BF00
:1017B40000ED00E080B483B000AF0346FB7197F9FD
:1017C4000730002B0BDBFB7903F01F02064997F966
:1017D40007305B09012000FA02F241F8232000BF20
:1017E4000C37BD4680BC704700E100E080B483B094
:1017F40000AF03463960FB7197F90730002B0ADB11
:101804003B68DAB20C4997F907301201D2B20B44A3
:1018140083F800230AE03B68DAB20849FB7903F055
:101824000F03043B1201D2B20B441A7600BF0C37EB
:10183400BD4680BC704700BF00E100E000ED00E061
:1018440080B489B000AFF860B9607A60FB6803F0D7
:101854000703FB61FB69C3F10703042B28BF0423BF
:10186400BB61FB690433062B02D9FB69033B00E02F
:1018740000237B614FF0FF32BB6902FA03F3DA43C2
:10188400BB681A407B699A404FF0FF317B6901FACB
:1018940003F3D9437B680B40134318462437BD46F2
:1018A40080BC704780B582B000AF78607B68013B34
:1018B400B3F1807F01D301230FE00A4A7B68013B27
:1018C40053600F214FF0FF30FFF790FF054B0022CC
:1018D4009A60044B07221A60002318460837BD4655
:1018E40080BD00BF10E000E080B582B000AF78603A
:1018F4007868FFF72DFF00BF0837BD4680BD80B56F
:1019040086B000AF0346B9607A60FB7300237B6145
:10191400FFF742FF78617A68B9687869FFF790FF4A
:10192400024697F90F3011461846FFF75FFF00BFD4
:101934001837BD4680BD80B582B000AF0346FB7149
:1019440097F907301846FFF735FF00BF0837BD4643
:1019540080BD80B582B000AF78607868FFF7A2FFE1
:10196400034618460837BD4680BD000080B582B0E6
:1019740000AFFFF7ADF800F06BFA00F0ABFA00F03F
:1019840063FBA64B10229A70A44B10225A710821B3
:10199400A24800F081FCA24B1B686FF001021A619F
:1019A4009F48FEF7BFFC00F0A9FC0346FB7097F9C3
:1019B40003300133052B00F2998101A252F823F080
:1019C400DD190008F91900082D1A0008911A0008F9
:1019D4003F1B0008ED1B0008924B1B7883F00103AA
:1019E400DBB2002B00F08181012220218E48FFF719
:1019F4007EFE7AE120218D48FFF791FE8C4B1B7807
:101A0400002B14BF01230023DBB283F00103DBB2FC
:101A140003F00103DAB2864B1A70824B00221A706B
:101A2400C820FFF7B7F861E17E4B00221A70804BA3
:101A340000221A700023FB7112E0002220217A4850
:101A4400FFF755FE3220FFF7A5F801222021764842
:101A5400FFF74DFE3220FFF79DF8FB790133FB7150
:101A6400FB79022BE9D9734B00221A80714B1A8837
:101A7400714B1A80704B1A88704B1A806F4B1A88FE
:101A84006F4B1A80C820FFF785F82FE1654B0022C1
:101A94001A700023BB7112E0002220216248FFF774
:101AA40026FE0A20FFF776F8012220215E48FFF780
:101AB4001EFE0A20FFF76EF8BB790133BB71BB79B8
:101AC400022BE9D95A4B1B78002B32D05D4B1B7883
:101AD400092B2ED85B4B1B781946594B18885A4A48
:101AE4000B465B000B445B00134402461A80554BC3
:101AF4001B781946514B1888534A0B465B000B441C
:101B04005B001344023302461A804E4B1B7819467D
:101B1400494B18884C4A0B465B000B445B0013444A
:101B2400043302461A80474B1B780133DAB2454B23
:101B34001A70C820FFF72EF8D8E03A4B01221A7029
:101B4400002220213848FFF7D2FD3E4B1B78002BA2
:101B540046D0374B00221A703C4B1A78394B1B780D
:101B64009A4202D2394B1B7800E00023374A1370A3
:101B7400364B1B781946344A0B465B000B445B001A
:101B840013441A882E4B1A80304B1B7819462E4A60
:101B94000B465B000B445B00134402331A88274B4B
:101BA4001A802A4B1B781946274A0B465B000B44C4
:101BB4005B00134404331A881F4B1A80234B1B7891
:101BC4000133DAB2214B1A70204B1A781D4B1B7863
:101BD4009A4202D21D4B1B7800E000231B4A13706B
:101BE400C820FEF7D7FF81E00E4B00221A700023B5
:101BF4007B710DE020210C48FFF791FD20210B485B
:101C0400FFF78DFD0A20FEF7C5FF7B7901337B7159
:101C14007B79052BEED900233B7149E00C000020B1
:101C2400A80000206500002000180140000C0140BD
:101C340064000020620000205C0000205E000020A0
:101C440060000020A400002068000020A5000020FF
:101C540039794E4A0B465B000B445B001344043352
:101C640000221A803A7949480B465B000B445B001A
:101C7400034404331888454913465B0013445B004E
:101C84000B440233014619803979404813465B00FE
:101C940013445B000344023318883C4A0B465B0040
:101CA4000B445B00134402461A803B7901333B71B9
:101CB4003B79092BCCD9364B00221A80344B1A8835
:101CC400344B1A80334B1A88334B1A80324B1A88A0
:101CD400324B1A80324B00221A70324B00221A7097
:101CE400304B1A78304B1A7000E000BF294B1A8829
:101CF4002E4BA3FB0213D9080B469B000B445B003D
:101D0400D31A9BB2DAB22A4B1A70224B1B88274A89
:101D1400A2FB0323DB089BB2DAB2254B5A701E4B9D
:101D24001A88224BA3FB0213D9080B469B000B44D1
:101D34005B00D31A9BB2DAB21D4BDA70164B1B88C8
:101D44001A4AA2FB0323DB089BB2DAB2184B1A71BE
:101D5400124B1A88154BA3FB0213D9080B469B00A0
:101D64000B445B00D31A9BB2DAB2114B9A710B4B42
:101D74001B880E4AA2FB0323DB089BB2DAB20C4B8E
:101D8400DA7108210A4800F087FA0CE6680000209E
:101D9400620000205C0000205E0000206000002043
:101DA40064000020A5000020A4000020CDCCCCCCF1
:101DB4000C00002080B483B000AF78607B681B689F
:101DC4001D4A934233D11D4B1B78002B2FD01C4B43
:101DD4001B8801339AB21A4B1A80194B1B883B2B70
:101DE4001FD9174B00221A80164B00221A80164B5B
:101DF4001B8801339AB2144B1A80134B1B883B2B5C
:101E04000FD9114B00221A80104B1B8801339AB250
:101E14000E4B1A800D4B1B88632B02D90B4B0022EF
:101E24001A80084B1B8801339AB2064B1A8000BFF4
:101E34000C37BD4680BC704700040040640000209D
:101E4400620000205C0000205E0000206000002092
:101E540080B590B000AF07F118032822002118467E
:101E6400FEF7DEF93B1D00221A605A609A60DA60C0
:101E74001A610223BB610123BB621023FB620023AE
:101E84007B6307F118031846FEF7A8FE0346002BF0
:101E940001D000F018F80F237B600023BB600023FF
:101EA400FB6000233B6100237B613B1D002118463E
:101EB400FFF716F90346002B01D000F004F800BF29
:101EC4004037BD4680BD80B400AF72B600BF00BFCE
:101ED400FDE7000080B58AB000AF07F118030022C7
:101EE4001A605A609A60DA60514B9B69504A43F019
:101EF400400393614E4B9B6903F040037B617B6914
:101F04004B4B9B694A4A43F010039361484B9B69CE
:101F140003F010033B613B69454B9B69444A43F022
:101F240004039361424B9B6903F00403FB60FB6869
:101F34003F4B9B693E4A43F0200393613C4B9B69B2
:101F440003F02003BB60BB68394B9B69384A43F0FC
:101F540008039361364B9B6903F008037B607B683D
:101F6400012220213348FFF7C2FB0022FF2132481F
:101F7400FFF7BDFB0122FF213048FFF7B8FB012228
:101F840020212F48FFF7B3FB1823BB610023FB611B
:101F940001233B6207F1180319462648FFF7FCF9B1
:101FA4002023BB610123FB6100233B6203237B628B
:101FB40007F1180319461F48FFF7EEF9FF23BB6129
:101FC4000123FB6100233B6202237B6207F11803B8
:101FD40019461948FFF7E0F90123BB610023FB61AF
:101FE40002233B6207F1180319461648FFF7D4F998
:101FF400FF23BB610123FB6100233B6202237B625D
:1020040007F1180319460D48FFF7C6F92023BB61F1
:102014000123FB6100233B6203237B6207F1180366
:1020240019460748FFF7B8F900BF2837BD4680BDF9
:10203400001002400018014000100140001401404B
:10204400000C01400008014080B586B000AF07F1E4
:10205400080300221A605A609A60DA603B46002244
:102064001A605A601D4B1E4A1A601C4B41F63F729F
:102074005A601A4B00229A60184B40F2E732DA6039
:10208400164B00221A61154B00229A611348FEF781
:10209400F9F80346002B01D0FFF715FF4FF48053E6
:1020A400BB6007F1080319460C48FEF78BFA034698
:1020B400002B01D0FFF707FF00233B6000237B6068
:1020C4003B4619460548FEF785FC0346002B01D024
:1020D400FFF7F9FE00BF1837BD4680BDA8000020F9
:1020E4000004004080B584B000AF78607B681B6852
:1020F4000D4A934213D10D4BDB690C4A43F00203A2
:10210400D3610A4BDB6903F00203FB60FB68002226
:1021140000211D20FFF7F3FB1D20FFF70CFC00BF7F
:102124001037BD4680BD00BF0004004000100240CF
:1021340080B400AF00BFFDE780B400AF00BFFDE78F
:1021440080B400AF00BFFDE780B400AF00BFFDE77F
:1021540080B400AF00BFFDE780B400AF00BFBD4650
:1021640080BC704780B400AF00BFBD4680BC7047E0
:1021740080B400AF00BFBD4680BC704780B500AFDF
:10218400FEF7ECFC00BF80BD80B500AF0248FEF74F
:1021940029F900BF80BD00BFA800002080B485B02D
:1021A40000AF154B9B69144A43F001039361124B32
:1021B4009B6903F00103BB60BB680F4BDB690E4AEC
:1021C40043F08053D3610C4BDB6903F080537B6095
:1021D4007B680A4B5B68FB60FB6823F0E063FB6091
:1021E400FB6843F08063FB60044AFB68536000BFF4
:1021F4001437BD4680BC7047001002400000014007
:10220400FEF73AF80B480C490C4A002302E0D45874
:10221400C4500433C4188C42F9D3094A094C00232E
:1022240001E013600432A242FBD3FEF701F8FFF78A
:102234009DFB7047000000203C0000205024000853
:102244003C000020F0000020FEE7000080B500AF55
:102254000022FF210248FFF74AFA00BF80BD00BFF9
:102264000010014080B582B000AF0346FB71FB79DA
:10227400252B08D8FB79064A32F813300122194677
:102284000448FFF734FA00BF0837BD4680BD00BFDD
:10229400140000200010014080B584B000AF7860C5
:1022A4000B46FB700023FB731DE0FFF7CFFF0122F9
:1022B400FF211148FFF71BFAFB7B012202FA03F30B
:1022C4009BB2002219460C48FFF711FAFB7B7A688F
:1022D40013441B781846FFF7C5FF0120FEF75AFC8C
:1022E400FB7B0133FB73FA7BFB789A42DDD300BF9F
:1022F40000BF1037BD4680BD0014014080B500AF5B
:102304003E4B1B78012B5CD110213D48FFF7D8F9D7
:102314000346002B0DD008213948FFF7D1F90346B5
:10232400002B06D001213748FFF7CAF90346012BD9
:1023340047D10A20FEF72EFC10213148FFF7C0F9DF
:102344000346002B0DD008212D48FFF7B9F90346A9
:10235400002B06D001212B48FFF7B2F90346012BCD
:102364002FD1264B00221A7010212548FFF7A8F917
:102374000346002B13D108212148FFF7A1F9034696
:10238400002B01D1032336E001211E48FFF798F901
:102394000346012B01D104232DE000232BE0082167
:1023A4001748FFF78DF90346002B01D1012322E0E2
:1023B40001211448FFF784F90346012B01D10223BC
:1023C40019E010210E48FFF77BF90346012B10D1C9
:1023D40008210B48FFF774F90346012B09D10121A9
:1023E4000848FFF76DF90346002B02D1034B012285
:1023F4001A704FF0FF33184680BD00BF3A0000202A
:102404000018014000080140F8B500BFF8BC08BC42
:102414009E467047F8B500BFF8BC08BC9E4670479E
:102424000000000000000000010203040607080980
:1024340002030405060708090A0B0C0D0E0F101001
:042444000102000091
:04244800090200087D
:04244C00E50100089E
:1024500000127A00100000000100000000001000CF
:10246000001000003F0006005B004F0066006D009A
:102470007D0007007F006F0077007C0039005E0060
:0C248000790071004000000080000100A5
:0400000508002205C8
:00000001FF
